:020000040800F2
:1000000000040020D500000885020008F90100085E
:1000100000000000000000000000000000000000E0
:10002000000000000000000000000000A90200081D
:10003000000000000000000087020008850300089F
:100040000501000805010008050100080501000878
:100050000501000805010008050100080501000868
:100060000501000805010008050100080501000858
:100070000501000805010008050100080501000848
:100080000501000805010008000000000501000846
:100090000501000805010008050100080501000828
:1000A0000501000805010008050100080501000818
:1000B0000501000800000000050100080000000024
:1000C0000348854600F032F8004800472504000840
:1000D000000400200C4880F308880C480168090ED1
:1000E0000B4A914205D10B480B4901600B480C4962
:1000F00001600C4880470C480047FEE7FEE7FEE73A
:10010000FEE7FEE7FEE70000000400200400000018
:100110001F00000018100240010000000000014014
:100120000000000089030008C1000008064C0125FA
:10013000064E05E0E36807CC2B430C3C984710348F
:10014000B442F7D3FFF7C0FF54040008640400086A
:10015000F0B50A4600210023002400BF3DE0012540
:100160008D402B4615681D402C469C4234D1157994
:10017000012D02D01579022D16D185684F00032676
:10018000BE40B543856055794E00B540866835431D
:100190008560858801268E40B5438580858896795F
:1001A0008E40B6B23543858005684F000326BE40B9
:1001B000B543056015794E00B540066835430560C6
:1001C000C5684F000326BE40B543C560D5794E00D3
:1001D000B540C6683543C560491C1029BFD3F0BD82
:1001E00002460020138A0B40002B01D0012000E0C2
:1001F000002070478161704700BFFEE71CB50121F8
:10020000880400F041F8002168460171C1710420A2
:10021000009069460148FFF79BFF1CBD00040048A1
:1002200070B504460D4629462046FFF7D9FF002841
:1002300009D101E0002070BD29462046FFF7D0FF1C
:100240000028F7D001E00120F5E700BFF3E71CB577
:100250000121480400F018F80120C002009001219B
:1002600068460171002181710121417169460920AF
:10027000C006FFF76DFF0121C9020920C006FFF784
:10028000B9FF1CBD70477047002905D0054A526967
:100290000243044B5A6104E0024A52698243014B13
:1002A0005A61704700100240704700000CB50020F2
:1002B00001900090314800680121090408432F494A
:1002C000086000BF2D4800680121490408400090E3
:1002D0000198401C01900098002804D105210903D1
:1002E00001988842EED12548006801214904084060
:1002F000002802D00120009001E00020009000982A
:10030000012839D111201E4908601C4840681B494A
:100310004860084640684860084640687F21C90335
:10032000884316494860084640681121090408437B
:1003300012494860084600680121090608430F4930
:10034000086000BF0D4800680121490608400028E8
:10035000F8D00A484068800880000849486008468C
:100360004068022108430549486000BF03484068CF
:100370000C2108400828F9D10CBD000000100240F3
:10038000002002407047000010B51B4800680121A2
:10039000084319490860084640681849084016494A
:1003A0004860084600681649084013490860084636
:1003B00000680121890488430F49086008464068A5
:1003C0003F21090488430C4948600846C06A000977
:1003D0000001C8620846006BFF215431884306497A
:1003E00008630846406B400840004863002088606E
:1003F000FFF75CFF10BD0000001002400CB8FF08C2
:10040000FFFFF6FE02E008C8121F08C1002AFAD159
:1004100070477047002001E001C1121F002AFBD184
:1004200070470000FFF713FFFFF7E8FE0EE004211E
:100430000748FFF7F5FE002808D10920C006808A8A
:100440000121C90248400921C9068882EFE700005E
:1004500000040048640400080000002000040000BC
:040460001404000878
:04000005080000C12E
:00000001FF
